:100000000C94F4000C941C010C941C010C941C0125
:100010000C941C010C941C010C941C010C941C01EC
:100020000C941C010C941C010C94330D0C941C01B9
:100030000C941C010C941C010C941C010C941C01CC
:100040000C941C010C941C010C941C010C941C01BC
:100050000C941C010C941C010C941C010C941608AB
:100060000C941C010C941C010C941C010C941C019C
:100070000C941C010C941C010C941C010C941C018C
:100080000C941C010C941C010C941C010C941C017C
:100090000C941C010C941C010C941C010C941C016C
:1000A0000C941C010C941C010C941C01420B690B58
:1000B0000A0D690B0A0DB10BD40B0A0D870C9B0CB2
:1000C000A713AA1399139D13A313CB13CB13CB130D
:1000D000AE13B213B613BC13C013CB13C613000177
:1000E0000008000200040020001000400080000012
:1000F0000000010002002000100040008000040009
:10010000080000020304050100000000230026008F
:1001100029002C002F000902200001010080FA09AB
:100120000400000258420000070581032000040774
:1001300005020320000412011001000000205E04EB
:1001400089022101000000010001000800020004F2
:1001500000200010004000800000000001000200AC
:100160002000100040008000040008000000000093
:10017000240027002A002D00300000000000250088
:1001800028002B002E00310004040404040304059D
:100190000202020204030202020206060606060624
:1001A000040402020204040408020110408040100A
:1001B000204080408008020401804020100201108D
:1001C0008010204040200000000200090F000003C2
:1001D0000401000C0000000000000000000000000E
:1001E000000000000000E11C11241FBECFEFDAE088
:1001F000DEBFCDBF11E0A0E0B1E0E4E4FCE302C06B
:1002000005900D92A238B107D9F723E0A2E8B1E03A
:1002100001C01D92A731B207E1F710E0C4EFD0E0B2
:1002200004C02197FE010E94F11DC33FD107C9F709
:100230000E945C170C94201E0C940000CF93DF9357
:10024000EC011A828B819C81DC01ED91FC91048090
:10025000F581E02D6D8109951D82198A80E0DF917D
:10026000CF9108956E3584E0780759F06D3A9BE19F
:10027000790739F06E3286E1780719F06F367E40E3
:10028000A1F44E3882E0580791F0463190EF5907BB
:1002900071F0413084E0580751F081E0433192E041
:1002A000590739F04F3E5E4B21F080E0089581E020
:1002B00008950895FC0181890895FC0185810895C0
:1002C000CF93DF93EC011C828D819E81DC01ED9147
:1002D000FC910480F581E02D6F8109951F8281E0FA
:1002E0008A8B1B8A1C8A1D8A1E8A198E1A8E80E0B0
:1002F000DF91CF9108956E3524E0720799F068334D
:1003000087E0780779F06F369EE0790759F06D3015
:100310002FE0720739F0623385E1780719F0663C07
:10032000744261F5413D22E0520751F14D3D82E0BA
:10033000580731F1433E92E0590711F14A3E22E05D
:100340005207F1F041308AE45807D1F0493391E087
:100350005907B1F0463421E0520791F04736510574
:1003600079F043308AE0580759F0CA018F7D8A310D
:10037000944531F081E04A32544519F080E0089507
:1003800081E00895FC01828D0895FC018781089524
:1003900008950E94FE1D4F925F926F927F928F92FE
:1003A0009F92AF92BF92CF92DF92EF920F931F93E3
:1003B000CF93DF9300D0CDB7DEB7FC012189222394
:1003C00009F465C06C0180E290E09A8389835F0143
:1003D000F8E2AF0EB11CE12C85019E012F5F3F4F6B
:1003E000F60141856581838194810E942816AB289E
:1003F00009F44DC0F60180A5811149C081A5843161
:1004000009F045C062A573A584A595A50E94F71DB6
:10041000628B738B848B958B26A537A5358F248FA4
:1004200020A931A9378F268F22A933A931A320A370
:1004300024A935A933A322A306891789208D318DDC
:10044000601771078207930711F1480159018094E1
:100450009094A094B0942501662477244C01AA249A
:10046000BB2484209520938E828E011104C06623C4
:1004700011F041E047A3111105C0772319F021E0E5
:10048000F60126A3F601668B778B808F918F80E033
:100490000F900F90DF91CF911F910F91EF90DF9010
:1004A000CF90BF90AF909F908F907F906F905F9014
:1004B0004F9008953F924F925F926F927F928F92EA
:1004C0009F92AF92BF92CF92DF92EF92FF920F93E3
:1004D0001F93CF93DF93CDB7DEB762970FB6F89433
:1004E000DEBF0FBECDBFDC0115961C91111139C1C5
:1004F000522E342E462E3C01FC01E380F480D701BD
:10050000ED91FC910190F081E02D60E0C70109952B
:100510006C01009711F416ED29C1FC0180809180D7
:100520008114910409F41FC15301F6E0AF0EB11C10
:10053000DC011196BC92AE9214965C92BE016F5F84
:100540007F4FF301838194810E940216082FD60108
:100550008D929C928111FBC089859A858E35B4E07D
:100560009B0761F08D3AEBE19E0741F08E32F6E198
:100570009F0721F08F369E4009F0E8C08B859C854F
:100580008F38A2E09A0709F4E1C08931B7E09B07F0
:1005900009F4DCC08139E2E09E0709F4D7C08E3847
:1005A000F2E09F0781F0863120EF920761F0813001
:1005B000A4E09A0741F08331B2E09B0721F08F3E1F
:1005C0009E4B09F0C3C0D701ED91FC910280F381ED
:1005D000E02D232D40E0642DC7010995F3018583AB
:1005E000882309F4C2C098859783682F83819481FA
:1005F0000E94D515082FD701ED91FC91D6011496D4
:100600001C92882359F00480F581E02DD3011596C2
:100610006C91C7010995F3011582A1C00190F08189
:10062000E02DD30115966C91C7010995009709F447
:1006300072CFFC015482950141E0D30115966C9173
:10064000159713968D919C9114970E949D1D082FCC
:1006500081117DC0FF24F394F301F18690E292872B
:1006600084E0838722E0248795878687950143E08D
:100670006581838194810E949D1D082F811167C02F
:1006800068EC70E080E090E00E9437141F921F92A7
:100690001F921F92812C912CA12CB12CC12CEE24E5
:1006A000E39409E020E0D30116964C911697159635
:1006B0006C91159713968D919C9114970E94F61446
:1006C000082F0F900F900F900F90811140C0D30111
:1006D0001F96ED91FC915097309711F0099531C01C
:1006E000E3E0F1E03491D301A85BBF4FFC9223E03B
:1006F000C301875B9F4FFC01208301963C5FFC0197
:1007000030831F921F92BF93AF9383E0882E912C6A
:1007100093E0A92EB12C22E0C22EE12C09E021E2C7
:10072000D30116964C91169715966C9115971396C2
:100730008D919C9114970E94F6140F900F900F903A
:100740000F9081E0F3018283818B10C001EDD30112
:10075000ED91FC910480F581E02DC3010995102FE6
:1007600005C019ED03C017ED01C014ED812F62968D
:100770000FB6F894DEBF0FBECDBFDF91CF911F91B2
:100780000F91FF90EF90DF90CF90BF90AF909F9030
:100790008F907F906F905F904F903F9008953F9221
:1007A0004F925F926F927F928F929F92AF92BF9281
:1007B000CF92DF92EF92FF920F931F93CF93DF932D
:1007C00000D000D0CDB7DEB76C017A8369835C833B
:1007D0004B834C0180E1880E911C5601A7E0AA0EC4
:1007E000B11C11E084E0482E3601B2E16B0E711CA1
:1007F00093E0392E22E0522E89819A81892B09F4C7
:10080000EEC0F60180A1823059F128F4882341F02E
:10081000813071F0F1CF833039F18430C1F1ECCF08
:10082000548285819681908787835286518610A352
:10083000AE014F5F5F4FBE016D5F7F4FC5010E94EC
:100840005B13882309F4CBC0D6011596ED91FC917A
:100850001697808191968C939197818192968C9333
:10086000F6017682658230A2D60192968C9192979B
:10087000843011F493961C92F60181A182508483F6
:1008800025813681308727838287818740A2D601E0
:1008900092968C918430A9F08530D1F1823009F0A4
:1008A00062C0AE014F5F5F4FBE016D5F7F4FC501FC
:1008B0000E945B13882309F492C0F601858984A302
:1008C00086C0AE014F5F5F4FBE016D5F7F4FC501B8
:1008D0000E945B13882309F482C0D60198968C91FC
:1008E0009897811174C093961C93939752968C910C
:1008F000529796968C93969753968C91539797967A
:100900008C93979757968C91579795968C935FC039
:10091000AE014F5F5F4FBE016D5F7F4FC5010E940B
:100920005B13882309F45BC0F60183A1882309F4D3
:100930004EC082819381009709F449C0DC01ED919A
:10094000FC910190F081E02D7401D60195960C91F7
:10095000959797962C91979796964C9196979496F3
:100960006C91099534C0F6018585882319F0813092
:1009700039F028C081A190E0029797878687158774
:1009800029813A818B819C81782F692FF6014685D8
:1009900057854115510581F001962115310529F43E
:1009A0001A8219827B836C830DC04150510957878D
:1009B000468721503109E8CF3A8329839C838B8372
:1009C000F6011586F60186859785892B41F4D601B7
:1009D00016969C928E92159790961C920DCF0F9022
:1009E0000F900F900F90DF91CF911F910F91FF907B
:1009F000EF90DF90CF90BF90AF909F908F907F90BF
:100A00006F905F904F903F900895AF92BF92CF92BA
:100A1000DF92EF920F931F93CF93DF9300D0CDB768
:100A2000DEB7FC01228D222309F4DBC06C010E9499
:100A30007114F6010389148925893689DC01CB01FB
:100A4000801B910BA20BB30BB7FDCBC00E9471149E
:100A5000F601E18CDC01CB018E0D911DA11DB11DB4
:100A6000838B948BA58BB68B878590E09A83898343
:100A700086010D5C1F4F9E012F5F3F4F46856781AA
:100A8000858196810E9428168111ABC0F60183A949
:100A9000873051F587A9438D548DEEEFF0E081301A
:100AA00041F425913491242B352BF601348F238F7B
:100AB00009C0859194918095909584239523F601A2
:100AC000948F838FF601238D348D858D968D281715
:100AD000390709F486C0809590958223932390A3CB
:100AE000878F368F258F7DC0803209F07AC0EEEF78
:100AF000F0E065917491F60120AD87A9922F9F7067
:100B0000482F4C7050E0542F4427550F550F592B48
:100B1000982F907F492B922F907C592B80FBAA24F1
:100B2000A0F8B12CC501A3E0880F991FAA95E1F7A1
:100B3000842B952B207330E0B4E035952795BA953A
:100B4000E1F7822B932B238D348D62237323862B25
:100B5000972B948F838F61AD72AD72A761A743AD60
:100B600054AD54A743A725AD36AD32A321A3FF96BC
:100B700020813181F60134A323A3EF5BFF4F208155
:100B80003181F60136A325A3ED5BFF4F2081318132
:100B9000F60130A727A3258D368D8217930741F0E4
:100BA000209530952823392330A3278F968F858F62
:100BB0006115710539F0F60185A596A5892B11F40B
:100BC00081E081ABF60176A765A74115510531F0AB
:100BD00087A590A9892B11F481E082ABF60150AB77
:100BE00047A780E00F900F90DF91CF911F910F9159
:100BF000EF90DF90CF90BF90AF9008952F923F92EB
:100C00004F925F926F927F928F929F92AF92BF921C
:100C1000CF92DF92EF92FF920F931F93CF93DF93C8
:100C2000CDB7DEB7C258D1090FB6F894DEBF0FBEFC
:100C3000CDBFDC011796FC90F110D5C1B22E942ED9
:100C4000A62E3C01FC0145805680D201ED91FC911D
:100C50000190F081E02D60E0C20109958C010097C0
:100C600019F4E6EDFE2EC7C1FC01C080D180C1148D
:100C7000D10409F4BBC11301F8E02F0E311CDC01D3
:100C800011963C922E921496BC92BE0166597F4FEB
:100C9000F301858196810E940216E82ED801CD923B
:100CA000DC92811196C1E6964EAD5FADE697E49673
:100CB0006EAD7FADE497D301ED91FC910484F58591
:100CC000E02DC3010995811103C071EDE72E81C1AB
:100CD000D201ED91FC910280F381E02D292D40E0BD
:100CE0006A2DC2010995F3018783882309F481C124
:100CF000E2969FADE2979187682F858196810E9449
:100D0000D515E82ED201ED91FC91D80114961C92D4
:100D1000882359F00480F581E02DD30117966C915A
:100D2000C2010995F30117825CC10190F081E02DA9
:100D3000D30117966C91C2010995009709F491CFE0
:100D4000FC01B482910141E0D30117966C91179791
:100D500015968D919C9116970E949D1DE82E8111EC
:100D600038C1EC96BFADEC97C058DF4FB883C05880
:100D7000D04010E02E01E1E44E0E511CC30102965A
:100D8000CF57DF4F99838883C158D040D201509606
:100D9000EE96BFAFAEAFEE97C058DF4FB881C058E8
:100DA000D0401B1709F47AC084E191E0F2019183ED
:100DB0008083CF57DF4FA881B981C158D040B3831A
:100DC000A28315861786168610A211A212A210A65B
:100DD000EE968EAD9FADEE97968385839087878341
:100DE000848182878187EE96AEADBFADEE97B487E2
:100DF000A387F301D78085819681C258DF4F9983FD
:100E00008883CE57D0401F921F92A1E0B0E0AC0F74
:100E1000BD1FBF93AF9349E0842E912C59E0A52EBE
:100E2000B12C62E0C62EE12E06E020E840E06D2DF8
:100E3000C258DF4F88819981CE57D0400E94F61466
:100E4000E82E0F900F900F900F9081111EC0AB8075
:100E5000BC805F924F92E1E0F0E0EC0FFD1FFF934A
:100E6000EF9330E4832E912CE12E20E840E06D2DAD
:100E7000C258DF4F88819981CE57D0400E94F61426
:100E8000E82E0F900F900F900F90E110A2C0D301A9
:100E900052968C91833010F41F5F7ECFF30142890C
:100EA000433008F412CF91016781858196810E94B9
:100EB0009D1DE82E81118DC068EC70E080E090E00F
:100EC0000E9437141F921F921F921F92812C912C07
:100ED000A12CB12CC12CD3015196EC90519709E073
:100EE00020E018964C91189717966C9117971596C5
:100EF0008D919C9116970E94F614E82E0F900F90FA
:100F00000F900F90811165C068EC70E080E090E078
:100F10000E94371485E022968FAF229780E22396B5
:100F20008FAF239781E025968FAF259726961FAE2A
:100F300026976301B3E7CB0ED11CF601808324967C
:100F40001FAE24978E010F5B1F4F25E030E0D301C9
:100F50001B964C911B9717966C91179715968D9130
:100F60009C9116970E94BA1DE82E811132C089E02B
:100F700089831A828C831D828FE08E831F8218865C
:100F800019861A861B861C861D86F601808191E0D3
:100F9000980F90838B83005411092DE030E0D3012A
:100FA0001B964C911B9717966C91179715968D91E0
:100FB0009C9116970E94BA1DD3015796ED91FC9112
:100FC0005897309709F0099581E0F3018483828F67
:100FD00012C0D301ED91FC910480F581E02DC30195
:100FE0000995FE2C08C029EDF22E05C097EDF92ECB
:100FF00002C084EDF82E8F2DCE57DF4F0FB6F89438
:10100000DEBF0FBECDBFDF91CF911F910F91FF903B
:10101000EF90DF90CF90BF90AF909F908F907F9098
:101020006F905F904F903F902F9008951F920F9276
:101030000FB60F9211242F933F938F939F93AF93EB
:10104000BF938091690290916A02A0916B02B09166
:101050006C023091820123E0230F2D3720F401969A
:10106000A11DB11D05C026E8230F0296A11DB11DCB
:10107000209382018093690290936A02A0936B028D
:10108000B0936C0280916D0290916E02A0916F02FC
:10109000B09170020196A11DB11D80936D029093D5
:1010A0006E02A0936F02B0937002BF91AF919F91B7
:1010B0008F913F912F910F900FBE0F901F90189519
:1010C0000F931F93CF93DF93C82FD62F8A0180E50C
:1010D00091E00E948D080E94BC0E8C2F82600E94BD
:1010E0008608CD2FD0E0209721F0BE01C8010E94D4
:1010F000A20EC00FD11F0E94BE0E0E948508CE0115
:10110000DF91CF911F910F91089508958EBD00003A
:101110000DB407FEFDCF8EB508958CBD9DBD08951D
:1011200080919B0187FF11C08091E80082FD05C07E
:101130008091A3018111F8CF11C08091E8008B77D5
:101140000BC08091A301882349F08091E80080FFC3
:10115000F8CF8091E8008E778093E8000895209181
:10116000A1013091A2012617370748F061157105DA
:1011700039F42091E8002E772093E80001C0B901EE
:10118000FC0120E06115710579F18091A3018823AC
:10119000F1F18530F1F18091E80083FD3CC0809150
:1011A000E80082FD2EC08091E80080FFEBCF209107
:1011B000F3008091F20090E0922B6115710551F0DF
:1011C0008032910538F421912093F100615071092A
:1011D0000196F3CF21E0809709F020E08091E800AC
:1011E0008E778093E800CECF2111CFCF0AC08091B7
:1011F000A301882361F0853061F08091E80083FDD0
:101200000AC08091E80082FFF2CF80E0089582E07A
:10121000089583E0089581E008952091E4003091DD
:10122000E50095E64091EC00842F817040FF23C0DB
:101230008091E80080FD1DC08091A301882399F072
:10124000853099F08091EB0085FD11C04091E4005C
:101250005091E5002417350729F3915011F09A01B8
:10126000E1CF84E0089582E0089583E0089581E06D
:10127000089580E008954091E80042FFDDCF089591
:10128000982F973068F59093E900981739F070918E
:10129000EC002091ED005091F00003C0242F762F38
:1012A00050E021FD02C09F5FECCF3091EB003E7F0C
:1012B0003093EB003091ED003D7F3093ED003091A5
:1012C000EB0031603093EB007093EC002093ED0065
:1012D0005093F0002091EE0027FDE5CF80E00895C7
:1012E0008F708093E90081E008958F929F92AF9272
:1012F000BF92DF92EF92FF920F931F93CF93DF93F2
:10130000CDB7DEB7AB970FB6F894DEBF0FBECDBF3B
:10131000EDB6FEB68091A301882309F48DC38091B8
:10132000E9008F702091EC00922F917020FD90E8E1
:10133000D92ED82A1092E9008091E80083FF78C363
:10134000EBE9F1E08091F100819321E0E33AF207CB
:10135000C9F780919B01813CE9F590919C01963001
:1013600089F420919D0130919E012115324491F51F
:101370008091E800877F8093E80060E170E080E37F
:1013800091E020C0913031F520919D0130919E0176
:10139000211551E0350751F48091E800877F809353
:1013A000E80064E170E08CE191E00CC0211532406E
:1013B00089F48091E800877F8093E80066E070E020
:1013C00086E191E00E94AF088091E8008B778093DE
:1013D000E80045C19091E80093FF41C120910001D0
:1013E00030E040919F015091A0014217530709F04E
:1013F00036C190919C01933009F4DBC030F49130F8
:1014000071F0923009F40FC12AC19A3009F4F3C087
:101410009B3009F4DDC0993009F021C155C0813AF3
:1014200009F01DC18DB69EB61A82198280919D0168
:1014300010919E018BA780910801482F50E0ADB715
:10144000BEB7A41BB50B0FB6F894BEBF0FBEADBFA1
:101450008DB79EB701965C0160E070E00E94191E96
:101460004FEF410F8E010F5F1F4F9501BE01655D6C
:101470007F4F80E091E00E94C4128091060190911C
:101480000701009731F04091080150E0B5010E943A
:10149000101E1092E9008091E800877F8093E80099
:1014A0008BA581118093F10069817A81C5010E9429
:1014B000AF088091E8008B778093E8000FB6F8942E
:1014C0009EBE0FBE8DBECBC0813209F0C8C04DB7E5
:1014D0005EB72091A1013091A20110919D01ADB79D
:1014E000BEB7A21BB30B0FB6F894BEBF0FBEADBF05
:1014F000EDB7FEB731968091E800877F8093E800D2
:101500002115310529F48091E8008B778093E8005C
:10151000DF01B9016115710541F18091A3018823B3
:1015200041F1853031F18091E80083FD22C0809146
:10153000E80082FFEFCFB090F3008091F20090E0DE
:101540009B29892B31F08091F1008D9361507109B5
:1015500091F78091E8008B778093E800DBCF809152
:10156000A301882331F0853021F08091E80080FFCD
:10157000F6CF8091E8008E778093E80081E011112A
:1015800001C080E090E0281B390B2630310559F46A
:10159000E80FF91F83818093FD0285818093FE020D
:1015A00081E08093FF020FB6F8945EBF0FBE4DBF7F
:1015B00056C0813A09F053C08091E800877F80933C
:1015C000E8008091E80080FFFCCF809109013EC0D7
:1015D000813209F044C08091E800877F8093E80061
:1015E0000E94900890919D0181E0911101C080E0DE
:1015F0008093090134C0813291F58091E800877FA2
:101600008093E8000E94900880919D0190919E0136
:101610008827E6E096958795EA95E1F790930D0186
:1016200080930C011CC0813AD1F48091E800877F3F
:101630008093E8008091E80080FFFCCF80910C014E
:1016400090910D0196958795969587958093F100D9
:101650008091E8008E778093E8000E949008809146
:10166000E80083FFD7C180919B0190919C01492F95
:1016700050E04A30510508F0CDC1FA01EA5AFF4F57
:101680000C94F11D803821F0823809F0C3C108C0E4
:101690008091830190918401992389F082600FC029
:1016A00080919F018F70873008F0B4C18093E9006A
:1016B0008091EB0085FB882780F91092E9009091DA
:1016C000E800977F9093E8008093F1001092F1007A
:1016D0002AC1282F2D7F09F09DC1882319F082305F
:1016E00061F098C180919D01813009F093C19330E0
:1016F00009F080E0809384012EC080919D018111CA
:101700002AC080919F018F702FEF280F263008F09C
:1017100081C18093E9002091EB0020FF1CC0933031
:1017200021F48091EB00806214C09091EB009061F5
:101730009093EB0021E030E0A90102C0440F551F57
:101740008A95E2F74093EA001092EA008091EB005C
:1017500088608093EB001092E9008091E800877F19
:10176000E5C0811157C110919D011F778091E30061
:101770008078812B8093E3008091E800877F8093BD
:10178000E8000E9490088091E80080FFFCCF8091E3
:10179000E30080688093E300112311F083E001C02F
:1017A00082E08093A30136C18058823008F032C1B4
:1017B00080919D0190919E018C3D53E0950779F5B4
:1017C00083E08A838AE289834FB7F894DE01139617
:1017D00020E03EE051E2E32FF0E050935700E49127
:1017E00020FF03C0E295EF703F5FEF708E2F90E017
:1017F000EA3010F0C79601C0C0968D939D932F5F7D
:10180000243149F74FBF8091E800877F8093E8003B
:101810006AE270E0CE0101960E94AF0872C0892F83
:1018200099278230910551F08330910561F001973D
:1018300079F080E090E0E0E0F0E00EC080E290E03F
:10184000E6E1F1E009C080E090E0FE01319604C0DD
:1018500082E190E0E6E3F1E0009709F4DBC020913B
:10186000E800277F2093E8002091A1013091A20198
:101870002817390708F4C90140E0009789F1209141
:10188000A301222309F43DC02530D9F12091E800BD
:1018900023FD37C02091E80022FD2FC02091E800F1
:1018A00020FFEBCF4091F3002091F20030E0342B89
:1018B000009759F02032310540F444914093F100F3
:1018C000319601972F5F3F4FF3CF41E02032310532
:1018D00009F040E02091E8002E772093E800CDCF7A
:1018E0004111CDCF0AC08091A301882351F08530EA
:1018F00041F08091E80083FD04C08091E80082FF00
:10190000F2CF8091E8008B778093E80083C0803825
:1019100009F080C08091E800877F8093E800809183
:1019200085018093F1008091E8008E778093E80034
:101930000E9490086FC081116DC080919D019091AF
:101940009E01992702970CF065C08091E800877F7F
:101950008093E80080919D01809385010E9490080A
:1019600080918501811104C08091E30087FF02C04E
:1019700084E001C081E08093A30187E0E9E0F1E029
:10198000DF011D928A95E9F781E08093090188E8DB
:1019900093E190930D0180930C0183E08093040107
:1019A00060910101611102C011E027C09091050111
:1019B000E0910201F0910301862F8F70873010F0C3
:1019C00010E01BC0923010F046E001C042E028E079
:1019D00030E090E02E173F0720F49F5F220F331F67
:1019E000F9CF9295907F492B661F6627661F606C22
:1019F0000E9440098111D8CFE3CF42E060EC82E041
:101A00000E9440099091E20094609093E20081234B
:101A1000809386018091E80083FF0AC08091E800EE
:101A2000877F8093E8008091EB0080628093EB00D9
:101A30008D2D8F708093E9000FB6F894FEBE0FBE17
:101A4000EDBEAB960FB6F894DEBF0FBECDBFDF91F3
:101A5000CF911F910F91FF90EF90DF90BF90AF90CB
:101A60009F908F9008951F920F920FB60F9211249E
:101A70002F933F934F935F936F937F938F939F9396
:101A8000AF93BF93EF93FF938091E10082FF14C067
:101A90008091E20082FF10C08091E1008B7F8093F3
:101AA000E10080910E0190910F01009729F00197BC
:101AB00090930F0180930E018091DA0080FF21C086
:101AC0008091D80080FF1DC08091DA008E7F8093C6
:101AD000DA008091D90080FF0BC080E189BD82E1EE
:101AE00089BD09B400FEFDCF81E08093A30109C048
:101AF00019BC1092A3011092860161E081E10E945D
:101B0000CC138091E10080FF17C08091E20080FF3C
:101B100013C08091E2008E7F8093E2008091E2000A
:101B200080618093E2008091D80080628093D80029
:101B300019BC85E08093A3018091E10084FF2EC051
:101B40008091E20084FF2AC080E189BD82E189BDE5
:101B500009B400FEFDCF8091D8008F7D8093D8001E
:101B60008091E1008F7E8093E1008091E2008F7E82
:101B70008093E2008091E20081608093E200809196
:101B80008501882311F084E007C08091E30087FD80
:101B900002C081E001C083E08093A3018091E10055
:101BA00083FF22C08091E20083FF1EC08091E1008C
:101BB000877F8093E10082E08093A30110928501EA
:101BC0008091E1008E7F8093E1008091E2008E7F22
:101BD0008093E2008091E20080618093E20042E223
:101BE00060E080E00E944009FF91EF91BF91AF91CA
:101BF0009F918F917F916F915F914F913F912F9125
:101C00000F900FBE0F901F901895CF93DF93FC019C
:101C1000862F8078A9F4283008F04DC0442321F0A5
:101C20009581973009F447C0EF01A1E0B0E09D85B0
:101C3000992341F011962596A031B105C1F73BC01B
:101C400080E039C061111CC085E08A9FE0018B9F54
:101C5000D00D1124CE0FDF1F442331F081E488879B
:101C600085818F5F858302C081E0888725E02A9F78
:101C7000C0012B9F900D1124E80FF91F80851BC018
:101C80006770660F660F660F442341F060648581BC
:101C90008F5F85838770687F682B03C02770687BA0
:101CA000622B25E02A9FC0012B9F900D1124E80F85
:101CB000F91F6087862FDF91CF910895611102C0CF
:101CC00006960895FC0121E03585631739F02F5FF2
:101CD00035962031C9F780E090E00895069635E00A
:101CE000239F800D911D1124089581E0089580E0C7
:101CF000089580E00895089580E0089580E00895B3
:101D0000FC01613499F49C01255B3F4F61E0AC011B
:101D10004E5F5F4F158666871786548743873596D3
:101D2000E217F307B9F7FC011582089521E0358524
:101D3000631729F02F5F35962031C9F70895622F78
:101D40000C941213FC0120812EBD9B0121503109FE
:101D500041F051810DB407FEFDCF4EB55EBD4193FC
:101D6000F5CF61507109FC01E60FF71F0DB407FEB6
:101D7000FDCF8EB5808308952E9808952E9A0895EC
:101D80000F931F93CF93DF9300D0CDB7DEB7182FFB
:101D9000062F80E591E00E948D080E94BC0E126023
:101DA00019830A8362E070E0CE0101960E94A20EC0
:101DB0000E94BE0E0E9485080F900F90DF91CF9178
:101DC0001F910F910895CF93C82F80E591E00E9455
:101DD0008D080E94BC0E8C2F0E94860880E00E9415
:101DE0008608C82F0E94BE0E0E9485088C2FCF91B6
:101DF00008958F929F92AF92BF92CF92DF92EF920F
:101E0000FF920F931F93CF93DF93862E942E590149
:101E10000E9471146B017C0128E8C20E23E1D21EDE
:101E2000E11CF11C00E010E0D0E0C0E098280E9426
:101E30007114DC01CB018C199D09AE09BF09B7FFF4
:101E40002DC0692D80EF0E94C00E0E947114DC012C
:101E5000CB018C199D09AE09BF09B7FF09C088ECF9
:101E60000E94E30E87FFF1CF60E888EC0E94C00E6D
:101E700088EF0E94E30EC82FCF70C43019F0CE3027
:101E800051F00CC00F5F1F4FA114B10481F20A156D
:101E90001B0569F603C0DF5FD33049F68C2FDF9155
:101EA000CF911F910F91FF90EF90DF90CF90BF9057
:101EB000AF909F908F9008952F923F924F925F9294
:101EC0006F927F928F929F92AF92BF92CF92DF924A
:101ED000EF92FF920F931F93CF93DF9300D000D028
:101EE0001F92CDB7DEB77D836C834A016901FB0188
:101EF000F1808FEF8F0D803408F074C00E94711450
:101F00002B013C01F8E84F0EF3E15F1E611C711CD0
:101F1000EC81FD81828180FD02C060E401C060E847
:101F200088EE0E94C00E312C8F2D90E09A83898319
:101F3000C114D10409F448C0E980FA80CE14DF044A
:101F400008F47601EB82A8016E2D80E10E94600802
:101F50006E2D88E30E94C00EEC81FD81608160627D
:101F600080EF0E94C00E88EC0E94E30E87FFFBCF3B
:101F700060E888EC0E94C00E88EF0E94E30E8F702C
:101F8000382EA12CB12C212C332009F46BC00E94D7
:101F90007114DC01CB0184199509A609B709B7FFB3
:101FA00061C0F6E03F1601F12EE0321609F455C08B
:101FB00084E0381209C0FFEFAF1ABF0A8114910400
:101FC00049F1A814B90431F588EF0E94E30E85FBAE
:101FD000882780F9EC81FD81928180FB90F99283C2
:101FE000832D45C08AED43C088EF0E94E30E85FB38
:101FF000882780F991E08927EC81FD81928180FB1F
:1020000090F9928390FD02C060E401C060E888EE20
:102010000E94C00E60E088E30E94C00EF80160815B
:1020200080E10E94C00E6B8188E30E94C00EEC81AB
:10203000FD816081606280EF0E94C00E88EC0E948A
:10204000E30E87FFFBCF60E888EC0E94C00E88EFAC
:102050000E94E30E8F70382E97CF239423E0221234
:10206000D9CFB2CFCE18DF080E0D1F1D61CF0F9054
:102070000F900F900F900F90DF91CF911F910F91C4
:10208000FF90EF90DF90CF90BF90AF909F908F9098
:102090007F906F905F904F903F902F9008952F9278
:1020A0003F924F925F926F927F928F929F92AF92E8
:1020B000BF92CF92DF92EF92FF920F931F93CF9335
:1020C000DF93CDB7DEB729970FB6F894DEBF0FBE0A
:1020D000CDBF1C016B015B834A835901D9016D900F
:1020E0007C901197FB01F181F9831D921C92DB0119
:1020F00012968C9181FD02C060E101C060E288EE21
:102100000E94C00E8E2D90E0A0E0B0E08C839D83F5
:10211000AE83BF83462C2A813B81D6014C9160E07F
:10212000C1010E94F90EF82EB6E08B1315C088EF9E
:102130000E94E30E8295817091E08927F6019281D9
:1021400080FB91F9928391FD02C060E101C060E2E1
:1021500088EE0E94C00EDFCF81116EC088EC0E9415
:10216000E30E82FF67C080E30E94E30E582E90E0EA
:102170006816790608F4542CD5018D919C91F301D1
:10218000E81BF90BF987E887F7FF02C01986188664
:10219000852C912C288539858216930614F499860E
:1021A000888680E591E00E948D080E94BC0E88E040
:1021B0000E9486084885598560E070E0C8010E9449
:1021C000191E88859985009721F0BC01C8010E94DD
:1021D000A20EA885B9850A0F1B1F0E94BE0E0E9481
:1021E000850864E088EC0E94C00EF5018081918131
:1021F000880E991E91828082F9815F1618F08614EC
:10220000970470F088EF0E94E30E82958170D601EA
:1022100012969C91129780FB91F912969C930CC098
:10222000EE2009F478CF6C817D818E819F810E94A0
:10223000371471CF80EFF82E8F2D29960FB6F894B2
:10224000DEBF0FBECDBFDF91CF911F910F91FF90E9
:10225000EF90DF90CF90BF90AF909F908F907F9046
:102260006F905F904F903F902F9008952091A7011D
:10227000222371F0880F991FFC01EF53FE4F8081DC
:102280009181811521E8920789F480E090E8089512
:102290002091F901222341F0880F991FFC01EB5096
:1022A000FE4F81A192A1089580E090E008952091D1
:1022B000A701222359F18830910519F48091B801C2
:1022C00008958930910519F48091B7010895FC01B2
:1022D000FF27EE0FFF1FE85BFE4F85919491A0E072
:1022E000B0E0DC01992788274091B7015091B801EF
:1022F0006091B9017091BA01482359236A237B2365
:1023000081E0452B462B472B69F52BC02091F90125
:10231000222339F19C01285031092230310580F403
:10232000089729F480911E0290911F0204C08091A9
:10233000200290912102969587959695879508950C
:10234000FC01FF27EE0FFF1FE252FF4F2591349152
:1023500080911002909111022823392381E0232BD0
:1023600009F480E008955F926F927F928F929F921E
:10237000AF92BF92CF92DF92EF92FF920F931F9393
:10238000CF93DF9300D01F92CDB7DEB7ADB6BEB608
:102390008091E4009091E50020910A0130910B01B9
:1023A000821B930B049708F4B0C08091A301843082
:1023B00009F0ABC08091E4009091E500281739073F
:1023C00009F4A3C0809101018F708093E90080918E
:1023D000E80085FF9AC08DB69EB64091080150E096
:1023E0008DB79EB7841B950B0FB6F8949EBF0FBE9A
:1023F0008DBFEDB7FEB731967F016F011B821A8248
:10240000198260E070E0CF010E94191E8E010F5FFB
:102410001F4F970140E0BE016D5F7F4F80E091E06C
:102420000E94C412582E80910C0190910D01892BAD
:1024300039F011E080910E0190910F01892B09F084
:1024400010E060900601709007016114710491F032
:1024500049815A81B301C7010E94031E01E0892B03
:1024600009F400E04091080150E0B701C3010E9467
:10247000101E01C000E089819A81892BC9F1511099
:1024800004C0011102C010FF33C080910C01909173
:102490000D0190930F0180930E01809101018F70C7
:1024A0008093E9008B8181118093F10009811A8169
:1024B0000E940D09882369F08091E8008E7780934F
:1024C000E80016C0F60181916F018093F100015080
:1024D00011090115110581F38091E80085FDF2CF06
:1024E0008091E8008E778093E8000E947509E0CF24
:1024F0008091E4009091E50090930B0180930A0194
:102500000FB6F8949EBE0FBE8DBE0E9475090FB621
:10251000F894BEBE0FBEADBE0F900F900F90DF912E
:10252000CF911F910F91FF90EF90DF90CF90BF90D0
:10253000AF909F908F907F906F905F9008953FB77E
:10254000F89480916D0290916E02A0916F02B0910B
:10255000700226B5A89B05C02F3F19F00196A11D5A
:10256000B11D3FBFBA2FA92F982F8827820F911D29
:10257000A11DB11DBC01CD0142E0660F771F881F70
:10258000991F4A95D1F708950F931F93F90110826F
:1025900084E18183A9EEB2E012968C911297828336
:1025A000138214968C911497848315968C911597A9
:1025B000858316968C911697868317968C9117971C
:1025C000878318968C911897808719968C91199704
:1025D00081871A968C911A9782871B968C911B97EC
:1025E00083871C968D919C911D97958784871E9655
:1025F0008D919C911F979787868750968D919C917E
:102600005197918B808B52968D919C915397938B80
:10261000828B84E190E0F8019183808380E01F91B8
:102620000F910895DF92EF92FF920F931F93CF9334
:10263000DF93EC01E62EF12C85E0689FB0011124B8
:10264000FE01E60FF71F8085182F177086FF17C051
:1026500001E085E0D82EFE01D09EE00DF11D112491
:10266000808586958695869587701817F9F00F5F97
:10267000003189F78D81811302C011501D8385E0DF
:102680008E9DF0018F9DF00D1124EC0FFD1F108623
:1026900081E0818712862296D783C683DF91CF910E
:1026A0001F910F91FF90EF90DF900895602FCE0162
:1026B0000E941213D0CFCF93DF93FC01EB018081F6
:1026C0009181892B21F18281882319F1DA012D91E1
:1026D0003C91232BE1F0A881B9819C91A381B0E0CA
:1026E000A81BB10920813181A20FB31F9C93828165
:1026F00081508283DA018D919C91119701978D937E
:102700009C9388819981019699838883DCCF80E0AE
:1027100003C08381828381E0DF91CF91089590E0AF
:10272000FC013197EF30F105B0F5E05AFF4F0C9402
:10273000F11D809180008F7703C0809180008F7D94
:1027400080938000089580918000877FF9CF84B5C1
:102750008F7702C084B58F7D84BD089580919000ED
:102760008F7707C0809190008F7D03C0809190008B
:10277000877F8093900008958091C0008F7703C079
:102780008091C0008F7D8093C00008958091C20029
:10279000877F8093C20008951F93CF93DF93282FE4
:1027A00030E0F901EA53FE4F8491F901E955FE4FFB
:1027B000D491F901E857FE4FC491CC23C1F0162FF4
:1027C00081110E948F13EC2FF0E0EE0FFF1FE658EF
:1027D000FE4FA591B4919FB7F894111104C08C914C
:1027E000D095D82302C0EC91DE2BDC939FBFDF9104
:1027F000CF911F910895CF93DF9390E0FC01E955AD
:10280000FE4F2491FC01E857FE4F8491882361F12B
:1028100090E0880F991FFC01E459FE4FC591D491B7
:10282000FC01E658FE4FA591B491611109C09FB714
:10283000F8948881209582238883EC912E230BC005
:10284000623061F49FB7F8948881322F30958323EA
:102850008883EC912E2B2C939FBF06C08FB7F894E2
:10286000E8812E2B28838FBFDF91CF9108958F921F
:102870009F92AF92BF92CF92DF92EF92FF926B0145
:102880007C010E949F124B015C01C114D104E10440
:10289000F104F1F00E949F12DC01CB018819990923
:1028A000AA09BB09883E9340A105B10570F321E058
:1028B000C21AD108E108F10888EE880E83E0981E5C
:1028C000A11CB11CC114D104E104F10419F7DDCF3E
:1028D000FF90EF90DF90CF90BF90AF909F908F9040
:1028E00008952FB7F8946091690270916A028091FF
:1028F0006B0290916C022FBF08956F927F928F921E
:102900009F92AF92BF92CF92DF92EF92FF920F937E
:102910001F93CF93DF93EC01B62EA42E79010E9472
:102920005E0E6C01009709F44DC0DC01ED91FC9145
:102930001197309709F448C013969C9180E098173E
:1029400031F02081A21629F033968F5FF8CFE0E0B6
:10295000F0E0D701ED93FC933097C1F18281869529
:10296000869590E08031910514F08FE090E041E091
:1029700050E060E070E03A014B0104C0660C771C47
:10298000881C991C8A95D2F7D401C3010197D801FC
:102990008D939C936B2D80EE0E94C00E88ED0E945B
:1029A000E30EF6019481992331F0CA58DF4F688114
:1029B0006260682B02C0682F697F88ED0E94C00E9C
:1029C00080E005C086ED03C087ED01C08BEDDF918F
:1029D000CF911F910F91FF90EF90DF90CF90BF901C
:1029E000AF909F908F907F906F9008952F923F921D
:1029F0004F925F926F927F928F929F92AF92BF920F
:102A0000CF92DF92EF92FF920F931F93CF93DF93BA
:102A1000CDB7DEB760970FB6F894DEBF0FBECDBF5F
:102A20003C01F42ED22E302E4DA05EA0188A1F86B7
:102A30001E861D868E01035F1F4F9E01215F3F4F43
:102A40000E947D14811198C0D9823A82EB82CC8297
:102A50001E821D82B886AF82AE014F5F5F4F68E075
:102A600080E20E9460082D853E854F2D60E1C30104
:102A70000E94F90EE82E81117BC08D2D8078382EB2
:102A80004114510409F465C0EF85F889828133202F
:102A900009F450C082608283650122242394C1140A
:102AA000D10409F45BC09C868B864D855E856F855D
:102AB0007889E12C82019E01255F3F4FC3010E946E
:102AC0004F10E82E96E0891312C00F85188988EF01
:102AD0000E94E30E85FB882780F98225D801129693
:102AE0009C91129780FB91F912969C93D8CF8111FB
:102AF0003FC0EFA1F8A53097A1F00190F081E02D43
:102B00000190F081E02DC5018C199D099A87898774
:102B10006B857C859E01275F3F4FA2018FA198A501
:102B200009958B859C85C81AD90A8815990508F0DE
:102B3000B6CF0FC0816082834D855E85820194018E
:102B4000BF01C3010E945C0F811116C02D853E8517
:102B500011C02D853E85311005C00CC0E11008C0A4
:102B60002D853E8560EA4F2DC3010E94F90E04C0F9
:102B70008E2D02C060E8F7CF60960FB6F894DEBFE6
:102B80000FBECDBFDF91CF911F910F91FF90EF90BE
:102B9000DF90CF90BF90AF909F908F907F906F907D
:102BA0005F904F903F902F9008958F929F92AF9299
:102BB000BF92CF92EF920F93CF931F921F921F92CB
:102BC0001F92812C912CA12CB12CC12CE62E05E05A
:102BD00020E040E060E00E94F614C82F6CE271E053
:102BE00080E090E00E9437140F900F900F900F90AC
:102BF0008C2FCF910F91EF90CF90BF90AF909F907F
:102C00008F9008958F929F92AF92BF92CF92EF9242
:102C10000F931F921F927F936F9322E1822E912C2C
:102C200032E1A32EB12CCC24C394E12C06E020E8A1
:102C300040E060E00E94F6140F900F900F900F900C
:102C40000F91EF90CF90BF90AF909F908F9008958D
:102C50008F929F92AF92BF92CF92DF92EF920F939B
:102C60001F93CF93DF9300D000D0CDB7DEB76C01B8
:102C7000590148011C821B821A8219828E010F5F42
:102C80001F4F9E012D5F3F4F0E947D14811109C08F
:102C900049815A816B817C8184019501C6010E9422
:102CA0004F100F900F900F900F90DF91CF911F91C9
:102CB0000F91EF90DF90CF90BF90AF909F908F904B
:102CC0000895CF92DF92FF920F931F93CF93DF93DC
:102CD000F62ED0E0082F10E0000F111F09531D4FF2
:102CE0006801D8018D919C91DC01ED91FC910280ED
:102CF000F381E02D2F2D40E060E00995803E59F4EE
:102D000061E088EE0E94C00E66E670E080E090E030
:102D10000E94371407C08D3019F4D33058F514C011
:102D200081112BC0F60180819181DC01ED91FC9134
:102D30000190F081E02D2F2D40E060E00995C82F33
:102D40008D3051F4D33050F464E670E080E090E0D0
:102D50000E943714DF5FC5CF882371F061E088EEF1
:102D60000E94C00E66E670E080E090E00E9437149A
:102D70008C2F03C08DE001C080E0DF91CF911F91C7
:102D80000F91FF90DF90CF90089588EF0E94E30E9F
:102D9000807C8034A1F018F4882301F108958038F4
:102DA00019F0803CB9F0089588ED0E94E30E81FD92
:102DB0000BC069EC88ED0E94C00E82E00CC088ED6B
:102DC0000E94E30E81FDF5CF6BEC88ED0E94C00EF2
:102DD00083E001C081E08093E802089561ED88ED11
:102DE0000E94C00E1092E8020895EF92FF92CF93D6
:102DF000DF93E701DC01129751966C9351978B8119
:102E00008370833009F58A81E82FEE1FEE27EE1FCD
:102E1000EF5FF0E09F01220F331FE20FF31FEA0F75
:102E2000FB1F8F7080878C8181878E8159969C9142
:102E30005997981718F459968C93599752968C91E4
:102E400052978F5F52968C93DF91CF91FF90EF90C6
:102E50000895EF92FF92CF93DF93DC01E701519643
:102E60006C9351978B818370833009F58A81E82FA9
:102E7000EE1FEE27EE1FEF5FF0E09F01220F331FE2
:102E8000E20FF31FEA0FFB1F8F7080878C81818711
:102E90008E8159969C915997981718F459968C934E
:102EA000599752968C9152978F5F52968C93DF91DF
:102EB000CF91FF90EF900895CF93DF93CDB7DEB71A
:102EC00065970FB6F894DEBF0FBECDBF789484B57A
:102ED000826084BD84B5816084BD85B5826085BD16
:102EE00085B5816085BD80916E00816080936E00A4
:102EF0001092810080918100826080938100809196
:102F00008100816080938100809180008160809346
:102F10008000809191008260809391008091910067
:102F200081608093910080919000816080939000F7
:102F30008091C10084608093C1008091C100826053
:102F40008093C1008091C10081608093C100809115
:102F5000C30081608093C3008091C0008260809331
:102F6000C0008091C20081608093C20080917A008D
:102F7000846080937A0080917A00826080937A00E6
:102F800080917A00816080937A0080917A008068D5
:102F900080937A0061E089E00E94FB1361E081E1A7
:102FA0000E94FB1362E083E10E94FB1362E084E174
:102FB0000E94FB1360E089E00E94CC1361E081E194
:102FC0000E94CC1384B7877F84BF0FB6F894A8956E
:102FD00080916000886180936000109260000FBE55
:102FE00020E030E080E80FB6F894809361002093F1
:102FF00061000FBE8091D8008F7E8093D8008091B1
:10300000D70081608093D70084E082BF81E0809305
:1030100087018091D8008E7F8093D8001092E200C3
:103020001092DA001092E1008091D8008F7780939F
:10303000D8008091D80080688093D8008091D80013
:103040008F7D8093D80019BC1092A3011092850146
:1030500010928401109283018091E0008B7F809315
:10306000E0008091D80081608093D80042E260E067
:1030700080E00E9440098091E1008E7F8093E10012
:103080008091E20081608093E2008091E20088609C
:103090008093E2008091E0008E7F8093E000809139
:1030A000D80080618093D800789487E1E9EEF2E05F
:1030B000DF011D928A95E9F760E089E00E94CC1358
:1030C00064E170E080E090E00E94371461E089E004
:1030D0000E94CC1364E170E080E090E00E9437141D
:1030E00009E911E068EBE62E61E0F62E77EDC72ED8
:1030F00071E0D72E269A0E94BE0EBFB6F89480913A
:103100008801811126C0F8018491F7012491E82FEC
:10311000F0E0EE0FFF1FE459FE4FA591B4919C9192
:10312000822F892321F461E081E10E94CC1361E0C8
:1031300081E10E94FB138CB580618CBD8CB58064ED
:103140008CBD61E08FE00E94FB1361E080E10E9492
:10315000FB13809188018F5F80938801BFBE209A06
:10316000289A259868E188E80E94C00E60E288E706
:103170000E94C00E60E088E70E94C00EA12CB12C16
:1031800088E60E94E30E2FEFA21AB20A80FD2EC03D
:10319000FFEFAF16BF06A1F7F6018491F701A490E7
:1031A000F801B490BB20A1F081110E948F13EB2D88
:1031B000F0E0EE0FFF1FE85FFE4FA591B4918C91F8
:1031C0008A2121E090E009F420E0622F792F02C0EB
:1031D00060E070E0F1E06F2781E10E94CC1364EFC2
:1031E00071E080E090E00E94371484CF61EC88EDBC
:1031F0000E94C00E60E680ED0E94C00E64E088EE82
:103200000E94C00E88EE0E94E30E82FFFBCF0E9458
:10321000C51660E288EC0E94C00E61E080E80E9462
:10322000C00E33E1532E41E1742E6E0183E1C80ECE
:10323000D11C0E94C5161D990DC088EC0E94E30E9A
:1032400085FF04C00E94C51660E201C060E088EC02
:103250000E94C00E8091E802813041F050F082302F
:1032600081F0833041F5662463940CC05092A40130
:1032700022C08091A401807F8031E9F07092A40186
:103280001AC0612C8091A401807F8031A9F40E9432
:103290007114DC01CB0188539F4FAF4FBF4F809318
:1032A000890190938A01A0938B01B0938C0180E2F5
:1032B0008093A40101C0612C07EC12E07801D701D2
:1032C0008D919D917D01009739F0DC01ED91FC918C
:1032D0000680F781E02D0995E7EEF2E0EE15FF0597
:1032E00071F78091A401803409F445C050F4803214
:1032F00029F18033C1F1813109F02BC11092E7022D
:103300000AC0813509F460C0803809F472C0803584
:1033100009F01FC141C0D8018D919D918D01009789
:1033200039F0DC01ED91FC910480F581E02D0995E7
:10333000B2E0073E1B0779F782E11AC00E947114C0
:103340000091890110918A0120918B0130918C01AB
:10335000DC01CB01801B910BA20BB30BB7FDF9C0B5
:1033600080E38093A40161E088EE0E94C00E80E4B7
:103370008093A401EEC088EE0E94E30E80FDE9C0B8
:1033800088ED0E94E30E682F686088ED0E94C00EF1
:10339000E0E5E093A401DDC088EC0E94E30E86FF27
:1033A000D8C081E58093A4010E947114DC01CB0197
:1033B0004496A11DB11D8093890190938A01A09329
:1033C0008B01B0938C01C5C00E947114809089015B
:1033D00090908A01A0908B01B0908C01DC01CB0110
:1033E00088199909AA09BB09B7FDB3C0F0E8F093A1
:1033F000A4011B8A28E02C8B8CE38D8B87E792E05D
:10340000892B09F49FC0E0907702F0907802D09267
:103410007802C092770260927B02BE016F5F7F4F9D
:1034200081E792E00E940216F0927802E092770221
:10343000811184C0A984BA848B849C843D802E80B1
:1034400097ECE92E92E0F92E412CD7018D919C91B9
:103450000097B9F1DC01ED91FC910084F185E02D3C
:10346000099581112EC0F70180819181DC01ED91D8
:10347000FC910088F189E02D622D0995882309F1DE
:10348000F70180819181DC01ED91FC910484F58547
:10349000E02DA401B501099581110DC0F7018081CE
:1034A0009181DC01ED91FC910684F785E02D632D7F
:1034B0000995882331F0662D842D0E946116813D87
:1034C000E9F54394E2E0EE0EF11CF0E14F12BDCFBE
:1034D000F12CF80180819181009709F026C1F394C5
:1034E0000E5F1F4F20E1F212F4CF8091770290918E
:1034F0007802892B39F160927B0220E040E060E0A5
:1035000081E792E00E94050E182F8823D9F0682FDA
:1035100081E792E00E945E0E0097A1F0FC016482B8
:10352000612F81E792E00E94D515082F882371F062
:10353000612F81E792E00E94800E802F882331F076
:10354000823D39F0F0EAF093A40103C020E9209312
:10355000A4018091A701811105C08091F901882300
:1035600009F4D9C01092EB0280E090E00E9457115C
:10357000882329F08091EB0281608093EB0282E046
:1035800090E00E945711882329F08091EB0282601D
:103590008093EB0283E090E00E945711882329F08A
:1035A0008091EB0284608093EB0281E090E00E94C6
:1035B0005711882329F08091EB0288608093EB02F9
:1035C00085E090E00E945711882329F08091EB025A
:1035D00080618093EB0284E090E00E945711882381
:1035E00029F08091EB0280628093EB0286E090E00C
:1035F0000E945711882329F08091EB028064809308
:10360000EB0287E090E00E945711882329F0809117
:10361000EB0280688093EB028DE090E00E945711EE
:10362000882309F4BDC08FEF8093ED028CE090E019
:103630000E945711882309F4B6C08FEF8093EE02E1
:103640008EE090E00E945711882309F4AFC08FEFFD
:103650008093EF028FE090E00E945711882309F4D5
:10366000A8C08FEF8093F0028AE090E00E9457118B
:10367000882309F4A1C08FEF8093F2028BE090E0E1
:103680000E945711882309F49AC08FEF8093F102AA
:1036900088E090E00E9457118093F30289E090E067
:1036A0000E9457118093F40280E090E00E9436114E
:1036B0009093F6028093F50281E090E00E9436112B
:1036C0009093F8028093F70282E090E00E94361116
:1036D0009093FA028093F90283E090E00E94361101
:1036E0009093FC028093FB020E9471140091970159
:1036F000109198012091990130919A01DC01CB0140
:10370000801B910BA20BB30B4197A105B10508F0EB
:1037100059C00E94B3118091A7018111DCC0809132
:10372000F901882309F4E5C0D6C0DC01ED91FC91D4
:103730000084F185E02D09958111D1CEF8018081B9
:103740009181DC01ED91FC910088F189E02D622DE1
:1037500009958823D9F0F80180819181DC01ED91F0
:10376000FC910484F585E02DA401B5010995811132
:10377000B6CEF80180819181DC01ED91FC91068447
:10378000F785E02D632D09958111A9CE662D8F2D2A
:103790000E946116982F977F913D09F0CFCE9FCE62
:1037A0001092ED0243CF1092EE024ACF1092EF0238
:1037B00051CF1092F00258CF1092F2025FCF1092C8
:1037C000F10266CF80E190E00E9457118823C9F191
:1037D0008091930190919401A0919501B0919601EF
:1037E000892B8A2B8B2B51F40E94711460939301C7
:1037F0007093940180939501909396010E947114A7
:103800008090930190909401A0909501B0909601C2
:10381000DC01CB0188199909AA09BB09893E9340AB
:10382000A105B10568F10E947114DC01CB01881972
:103830009909AA09BB098C349440A105B10558F136
:103840001FC085E090E00E9457118823A9F184E011
:1038500090E00E945711882379F188E090E00E945F
:103860005711882349F189E090E00E94571188237D
:1038700019F11092FD021092FE0281E08093FF0286
:103880000E9471146093970170939801809399013D
:1038900090939A013ECF1092EB026AE070E080E0D4
:1038A00090E00E94371410929301109294011092AC
:1038B000950110929601E4CF109293011092940119
:1038C00010929501109296018091FF028130C1F60D
:1038D0001092FF02D5CF8091E0008E7F8093E000B0
:1038E000809186018823B1F060E081E10E94CC13D1
:1038F00011C00E94711469357B418105910508F45E
:1039000058C061E081E10E94CC138091E0008160A9
:103910008093E0008091E9008F702091EC00922F5D
:10392000917020FD90E8692E682A82E08093E9007A
:103930008091E80082FF38C00E940D0981111EC0ED
:1039400006E010E08DE8E82E81E0F82E08C08091B6
:10395000F100D7018D937D010150110979F080911B
:10396000E80085FDF4CF8091E8008B778093E80034
:103970000E9475090E940D09882389F38091E8004F
:103980008B778093E80080918E01863059F4809186
:1039900090018093FD02809192018093FE02B1E03C
:1039A000B093FF0210928E01862D8F708093E900F4
:1039B00040CC8091E0008E7F8093E0000E94B311A4
:1039C000A9CF8CE791E090937202809371021092DC
:1039D00076021092790281E080937A0210927B0243
:1039E00083E792E0909378028093770210927302BB
:1039F00088E0809374028CE380937502E1E7F2E043
:103A00008CEB92E041E023E732E01586468717868B
:103A10003487238735968E179F07B9F71092E702F0
:103A200081E18093A4018CE591E09093F60180936D
:103A3000F50186E791E09093F8018093F70181E723
:103A400092E09093FB018093FA011092FC0181E0D7
:103A500080930702109208021092090210920A0243
:103A600010920B0210920E0210920F021092FD01A2
:103A700088E08093FE018CE38093FF0110920002A6
:103A80001092010284E080930202109203021092CD
:103A9000040280930502E7ECF2E080E090E02191DF
:103AA0003191232B51F4880F991FFC01E953FD4FED
:103AB00085EF91E09183808304C001968031910568
:103AC00071F784E491E09093A6018093A50181E7CA
:103AD00092E09093A9018093A8011092AA011092FC
:103AE000B6011092AB0188E08093AC018CE3809327
:103AF000AD011092AE011092AF0184E08093B0014D
:103B00001092B1011092B2018093B301E7ECF2E0A0
:103B100080E090E021913191232B51F4880F991F7F
:103B2000FC01E953FD4F85EA91E09183808308957C
:103B300001968031910571F708950F931F93CF93EC
:103B4000DF932115310571F0E901042F162F0E9432
:103B50005E0EFC01892B41F01283D183C083038365
:103B600080E003C088ED01C086EDDF91CF911F9109
:103B70000F910895AF92BF92CF92DF92EF92FF9292
:103B80000F931F93CF93DF9300D000D0CDB7DEB754
:103B90007C01690158011C821B821A8219828E01E4
:103BA0000F5F1F4F9E012D5F3F4F0E947D148111BB
:103BB00009C049815A816B817C8185019601C701C9
:103BC0000E945C0F0F900F900F900F90DF91CF919C
:103BD0001F910F91FF90EF90DF90CF90BF90AF902B
:103BE0000895EE0FFF1F0590F491E02D09946927C9
:103BF00096276927782787277827089581E090E01E
:103C0000F8940C94201EFB01DC0104C08D910190FE
:103C1000801921F441505040C8F7881B990B089532
:103C2000FB01DC0102C001900D9241505040D8F7D9
:103C30000895DC0101C06D9341505040E0F70895B4
:043C4000F894FFCF26
:103C440000811400000100031700000000000000C0
:103C540000000000CF030006FFFFFFFF0014FF0079
:103C6400FFFFFFFFFFFFFFFFFFFFFFFFFFFFFFFF60
:103C74001042000101021406FFFFFFFFFFFFFFFFD8
:103C8400000000005A027E0E1E01CB015D017B0E76
:103C94003201770E750E5A0100000000FE057E0EFB
:103CA40060010505C5017B0E7B01770E750EC2010F
:103CB4002917FEFF0000F516000000005E0E050E39
:023CC400800E70
:00000001FF
